:100000000C945F000C9487000C9487000C9487007C
:100010000C9487000C9487000C9487000C942209A0
:100020000C9487000C9487000C9487000C94870034
:100030000C9487000C9487000C9487000C94870024
:100040000C947E090C9487000C9487000C94870014
:100050000C9487000C9487000C9487000C94870004
:100060000C94C8090C9487000000000024002700AD
:100070002A0002000000080002010000030407003B
:100080000000000000000001020408102040800170
:1000900002040810200102040810200000000025BE
:1000A0000028002B000404040404040404020202D7
:1000B00002020203030303030300F60A410C1124A6
:1000C0001FBECFEFD8E0DEBFCDBF11E0A0E0B1E0B2
:1000D000E0E2FCE102C005900D92AA32B107D9F727
:1000E00022E0AAE2B1E001C01D92AC30B207E1F714
:1000F00010E0CEE5D0E004C02197FE010E94D00CB4
:10010000CD35D107C9F70E94720B0C94030E0C94E5
:1001100000008F929F92AF92BF92CF92DF92EF92A8
:10012000FF92CF93DF932091F4013091F501821774
:10013000930708F057C04B01AA24BB24F82DC52E05
:10014000D62EE72EFF24AC2DE42F2091FA01222396
:1001500061F0829E40011124F92D2C9D6001112433
:10016000AD2D249FE0011124ED2F30910002B091BC
:10017000FD01E090FB01F090FC013B1308C09C01E5
:10018000220F331F820F931F8E0D9F1D19C0880FE2
:10019000991F880F991F8E0D9F1D472F5527662782
:1001A0007727EC01C30FD11D222349F030E0249FB3
:1001B0007001259FF00C349FF00C11244F2D4883C3
:1001C0002091FD01EC01C20FD11DF8832091FE01A9
:1001D000EC01C20FD11DA8832091FF01DC01A20F09
:1001E000B11DEC93DF91CF91FF90EF90DF90CF9016
:1001F000BF90AF909F908F900895E091D101F091C2
:10020000D201309729F01092CC011092CB010994C1
:100210000895CF93DF93AC01E091CF01F091D0012D
:100220003097F1F09091CE018091CD019817C0F0F8
:1002300090E0292F30E02617370754F4D901A25D4A
:10024000BE4FEA01C20FD31F28812C939F5FF1CFCD
:100250001092CE016093CD01CB01DF91CF91099433
:10026000DF91CF910895CF92DF92EF92FF920F939B
:100270001F93CF93DF936C017A018B01C0E0D0E034
:10028000CE15DF0581F0D8016D918D01D601ED917C
:10029000FC910190F081E02DC6010995892B11F0A8
:1002A0002196EECF7E01C701DF91CF911F910F9173
:1002B000FF90EF90DF90CF90089590E0FC01ED5813
:1002C000FF4F2491FC01E957FF4F3491FC01EB559E
:1002D000FF4FE491EE2309F43CC0222339F123308F
:1002E00091F038F42130A9F0223001F584B58F7DEA
:1002F00012C0273091F02830A1F02430B9F4809159
:1003000080008F7D03C0809180008F778093800074
:100310000DC084B58F7784BD09C08091B0008F7700
:1003200003C08091B0008F7D8093B000F0E0EE0FAD
:10033000FF1FE556FF4FA591B4919FB7F894611147
:1003400004C08C913095382302C0EC913E2B3C9335
:100350009FBF089590910001891324C0E2E7F0E067
:10036000E4919FEF90930001E130B9F098F0E23012
:10037000C9F4909170009D7F9093700091E09093EC
:10038000B0009091B100987F94609093B10010926A
:10039000B30008C010926E0005C090916F009D7F61
:1003A00090936F0060E00C945D01CF93DF9390E039
:1003B000FC01E957FF4F2491FC01EB55FF4F84915D
:1003C000882361F190E0880F991FFC01E859FF4FE5
:1003D000C591D491FC01E556FF4FA591B4916111EF
:1003E00009C09FB7F8948881209582238883EC9177
:1003F0002E230BC0623061F49FB7F8948881322FAE
:10040000309583238883EC912E2B2C939FBF06C0BD
:100410008FB7F894E8812E2B28838FBFDF91CF917F
:100420000895CF93DF93EC0161E08AE00E94D5014B
:10043000209711F460E004C0CF3FD10531F461E0B2
:100440008AE0DF91CF910C945D01EDE7F0E0E4915B
:10045000E330F9F048F4E130B9F0E230A1F584B5C9
:10046000806284BDC8BD34C0E730E9F0E83019F1DE
:10047000E43049F580918000806280938000D093C1
:100480008B00C0938A0024C084B5806884BDC7BD3A
:100490001FC080918000806880938000D093890085
:1004A000C093880015C08091B00080688093B00030
:1004B000C093B3000DC08091B00080628093B00003
:1004C000C093B40005C0C038D1050CF0B8CFB2CF8E
:1004D000DF91CF9108954F925F926F927F928F92AA
:1004E0009F92AF92BF92CF92DF92EF92FF921F93B3
:1004F000CF93DF93EC0180910001893021F08F3F91
:1005000009F00AC204C0E2E7F0E014916FC089E08C
:1005100080930001E2E7F0E014911F3F09F4FCC171
:10052000113009F440C030F1123009F05FC0109270
:10053000B0001092B1008091B00082608093B00052
:100540008091B10081608093B100EEEAF0E0E49127
:10055000F0E0EE0FFF1FE556FF4F859194919093C9
:10056000D5018093D401E0E9F0E0E491E093D30178
:1005700012E0CDC114BC15BC84B5826084BD85B5C4
:10058000816085BDEEEAF0E0E491F0E0EE0FFF1F40
:10059000E556FF4F85919491E0E9F0E0E491E09316
:1005A000D70110E0B4C110928000109281008091B8
:1005B00081008860809381008091810081608093B8
:1005C0008100EEEAF0E0E491F0E0EE0FFF1FE55667
:1005D000FF4F85919491E0E9F0E0E491E093D6013A
:1005E00061E089E00E94D50111E0B1C017FD94C11E
:1005F00061E089E00E94D501812F8D7F09F0A7C0BD
:100600004E01A12CB12C60E072E18AE790E0A501D7
:1006100094010E94510C29013A0169017A0121E0FB
:10062000C21AD108E108F1088FEFC816D104E1041D
:10063000F10409F008F44BC060E472E48FE090E04C
:10064000A50194010E94510C69017A0181E0C81A48
:10065000D108E108F108123001F52FEFC216D104DC
:10066000E104F10409F008F4EAC060E970ED83E008
:1006700090E0A50194010E94510C69017A0181E08A
:10068000C81AD108E108F1082FEFC216D104E1041D
:10069000F10409F030F583E053C08FEFC816D104A0
:1006A000E104F104B1F0A8F068E478EE81E090E0B4
:1006B000A50194010E94510C69017A0181E0C81AD8
:1006C000D108E108F108112309F4EEC0E4C081E08B
:1006D00001C082E0111134C095B5987F892B85BD8A
:1006E00068C068E478EE81E090E0A50194010E9482
:1006F000510C69017A0181E0C81AD108E108F108BA
:100700002FEFC216D104E104F10409F008F495C0FA
:1007100064E274EF80E090E0A50194010E94510C26
:1007200069017A0181E0C81AD108E108F1082FEFC8
:10073000C216D104E104F10411F008F082C085E092
:100740009091B100987F892B8093B10032C04E0107
:10075000A12CB12C60E072E18AE790E0A501940140
:100760000E94510C69017A0181E0C81AD108E108A0
:10077000F108C114D10421E0E206F10488F068E434
:1007800078EE81E090E0A50194010E94510C69018E
:100790007A0181E0C81AD108E108F10883E001C0BC
:1007A00081E0113031F490918100987F892B809302
:1007B00081009E01220F331FA4E6B0E00E94920C3C
:1007C00028EE33E040E050E00E94700C113099F0C8
:1007D000123019F11111A0C0C7BC2093E001309371
:1007E000E1014093E2015093E30180916E00826049
:1007F00080936E0091C0D0928900C09288002093AF
:10080000DC013093DD014093DE015093DF018091E4
:100810006F00826080936F007FC0C092B30020930E
:10082000D8013093D9014093DA015093DB018091D4
:1008300070008260809370006FC084E081CF82E09E
:100840007FCF62E17AE780E090E0A50194010E9409
:10085000510C69017A0181E0C81AD108E108F10858
:100860008FEFC816D104E104F10499F090F0D301A0
:10087000C2012AE0B595A795979587952A95D1F756
:100880006C017D0121E0C21AD108E108F10887E07E
:1008900057CF86E055CF2FEFC216D104E104F10403
:1008A00009F078F684E016CF8FEFC816D104E10482
:1008B000F10459F150F162E17AE780E090E0A5019E
:1008C00094010E94510C69017A0181E0C81AD10893
:1008D000E108F1082FEFC216D104E104F10499F008
:1008E00090F0D301C2013AE0B595A7959795879509
:1008F0003A95D1F76C017D0121E0C21AD108E108D7
:10090000F10885E0E9CE84E0E7CE83E0E5CE61E062
:1009100089E00E94D50174CEDF91CF911F91FF90A5
:10092000EF90DF90CF90BF90AF909F908F907F908F
:100930006F905F904F9008953FB7F8948091C301F6
:100940009091C401A091C501B091C60126B5A89BA4
:1009500005C02F3F19F00196A11DB11D3FBFBA2F51
:10096000A92F982F8827820F911DA11DB11DBC01B1
:10097000CD0142E0660F771F881F991F4A95D1F776
:1009800008950F931F93CF93DF93CDB7DEB72997C9
:100990000FB6F894DEBF0FBECDBF8091FB019091E2
:1009A000FC01892B09F4B7C00E949C04009101024C
:1009B0001091020220910302309104026017710726
:1009C0008207930740F460930102709302028093C0
:1009D00003029093040200910102109102022091FF
:1009E000030230910402DC01CB01801B910BA20BAE
:1009F000B30B8C329140A105B105B0F2F89480910F
:100A0000F6019091F7019A838983E091FB01F091BF
:100A1000FC01DF011196808189879091F001E091BE
:100A20000502F091060280910702992309F42EC075
:100A30009081982B98879081809589238F838F81CF
:100A40008C8388E08B8358856F8149853B812C811D
:100A500089819A81508347FD252F3A952083262F3F
:100A600039F0441F00C000006083000000C0F2CFD6
:100A700038E04D9160830000019761F7F093060222
:100A8000E093050249873B832C8338C09081982BE3
:100A900098879081809589238F838F818E8388E0CA
:100AA0008D8358856F8149853D812E8189819A8109
:100AB000508347FD252F00C000C0208300C000C028
:100AC00000C000C000C060830000262F3A9541F0AE
:100AD000441F000000C000C000C000C000C0E8CF3C
:100AE00038E04D9100C0608300C0019709F7F09392
:100AF0000602E093050249873D832E839A8389830A
:100B000078940E949C046093010270930202809387
:100B100003029093040229960FB6F894DEBF0FBE2D
:100B2000CDBFDF91CF911F910F9108958F929F922A
:100B3000AF92BF92CF92DF92EF92FF926B017C0156
:100B40000E949C044B015C01C114D104E104F10436
:100B5000F1F00E949C04DC01CB0188199909AA09D3
:100B6000BB09883E9340A105B10570F321E0C21A8C
:100B7000D108E108F10888EE880E83E0981EA11CD8
:100B8000B11CC114D104E104F10419F7DDCFFF90C9
:100B9000EF90DF90CF90BF90AF909F908F9008958F
:100BA00040917401262F30E0240F311D2132310590
:100BB000DCF4209198012430C9F4FC0180E090E03D
:100BC000861758F4309174012191DC01AC5ABE4F64
:100BD000A30FB11D2C930196F3CF80917401680F80
:100BE0006093740180E0089581E0089582E00895A3
:100BF0001092980181E080939A011092990161E02E
:100C000082E10E945D0161E083E10E945D01E9EB08
:100C1000F0E080818E7F808380818D7F808388E477
:100C20008093B80085E48093BC0008950895E09116
:100C3000CE018091CD01E81730F4F0E0E25DFE4F87
:100C4000808190E008958FEF9FEF08959091CE01FD
:100C50008091CD01981750F4E92FF0E0E25DFE4F4E
:100C6000208130E09F5F9093CE0102C02FEF3FEFD5
:100C7000C90108958091CD0190E02091CE01821BA1
:100C800091090895CF93DF93CB01EA01642F0E946D
:100C9000D005CE01DF91CF910895CF93DF9300D09F
:100CA00000D0CDB7DEB780912C0190912D018983C2
:100CB0009A83330F220B322F2B83990F880B982F97
:100CC0008C8344E050E0BE016F5F7F4F84EE91E083
:100CD0000E9442060F900F900F900F90DF91CF91DE
:100CE0000895CF93DF931F92CDB7DEB7698361E09C
:100CF000CE0101960E94D00581E090E00F90DF9137
:100D0000CF910895089580E090E00895CF93DF9308
:100D1000D62FC42F682F8FE00E945D016D2F80E1D8
:100D20000E945D016C2F81E1DF91CF910C945D01F8
:100D3000CF92DF92EF92FF926C0140E060E081E0A1
:100D40000E9486060D2C000CEE08FF08C701B601B4
:100D50000E94960540E061E080E00E948606C7019F
:100D6000B6010E94960541E060E080E00E948606A0
:100D7000C701B6010E94960540E060E080E0FF9068
:100D8000EF90DF90CF900C948606CF93DF93D82F0F
:100D9000C8E06D2F661F6627661F8EE00E945D010A
:100DA000DD0F61E088E00E945D0160E088E00E9464
:100DB0005D01C15071F7DF91CF910895CF93DF931B
:100DC00060E08AE00E945D0161E084E00E945D01D4
:100DD000C4E1D0E080E00E94C5062197D9F7DF91F9
:100DE000CF910895E0EFF1E04681578160E070E037
:100DF000838594850C94FC0DCF93DF930E94F206BB
:100E0000C0E0D0E040E050E0BA01CE010E9489008D
:100E10000E94C1042196C432D105A1F7DF91CF9180
:100E20000C94F2064F925F926F927F928F929F92F4
:100E3000AF92BF92CF92DF92EF92FF920F931F93E8
:100E4000CF93DF93CDB7DEB760970FB6F894DEBFD0
:100E50000FBECDBF53E2452E512C612C712C68E0A2
:100E6000862E912C9091CD018091CE01981709F496
:100E700079C184EE91E00E9426067C0190932D01B9
:100E800080932C0184EE91E00E9426068C019093C1
:100E90002B0180932A0181E0E816F10469F460E0F7
:100EA00087E00E945D010E94DE0661E087E00E940B
:100EB0005D010E94FC066FC092E0E916F10409F0A2
:100EC0006AC060E087E00E945D0160E086E00E9409
:100ED0005D01073911051CF086E990E001C0C801E9
:100EE0000E94110261E084E00E945D0144E1E42E71
:100EF000F12C8FEF0E94C50681E0E81AF108C9F7CE
:100F000061E087E00E945D0124E130E0D8010E94A9
:100F1000B50CA30192010E94510C69017A010E9453
:100F2000F20694E6C916D1042CF5B701A60155279F
:100F3000662777277A01DD24CC24B62FA52F942F9E
:100F40008827C82AD92AEA2AFB2AC42AD52AE62AC7
:100F5000F72A00E010E0B701A601C8010E9489004D
:100F60000E94C1040F5F1F4F04321105A1F70E94B8
:100F7000F20611C000E010E04BE45BE46BE470E0CB
:100F8000C8010E9489000E94C1040F5F1F4F0432F4
:100F9000110591F7ECCF00912C0110912D01063035
:100FA000110591F4E0902A01F0902B010E94F206C5
:100FB00046E956E966E970E0C7010E9489000E948F
:100FC000C1040E94F2068DC00330110509F070C003
:100FD000C0902A01D0902B010E94F206C601B801F0
:100FE0000E94A10C9B01009729F440E050E06FEFB4
:100FF00070E00EC08130910529F440E05FEF60E0C1
:1010000070E006C0029739F44FEF50E060E070E006
:10101000C9010E9489000E94C1040E94F2068BE46B
:1010200090E00E94110280E1E7E0F1E0DE0111961C
:1010300001900D928A95E1F760E087E00E945D01E2
:101040007601D7FE03C087E0E80EF11C93E0F5942B
:10105000E7949A95E1F757019FEFA91AB90A84E13D
:10106000A816B10424F480E00E94C506F5CFC6019D
:10107000B4010E94A10CFC01EE0FFF1F81E090E083
:101080008C0F9D1FE80FF91F80810E94C506C12C9F
:10109000D12CCE14DF043CF480E00E94C5069FEF03
:1010A000C91AD90AF6CF61E087E00E945D0119C034
:1010B0000530110529F460E084E00E945D011BC049
:1010C0000830110539F480912A0190912B010E947A
:1010D0006B0224C00035110521F489E00E94AA01A9
:1010E0002AC00930110539F480912A0190912B0111
:1010F0000E94980620C00A30110581F480912A01CF
:1011000090912B01009729F460E085E00E945D0139
:1011100012C0019709F0A6CE61E009C001151105C2
:10112000D1F440E060E080E00E94860660E085E067
:101130000E945D0197CE0C30110519F440E061E08A
:1011400006C00D30110509F08DCE41E060E080E071
:101150000E94860687CE0B30110569F740E060E0FB
:1011600081E0F6CF60960FB6F894DEBF0FBECDBF1C
:10117000DF91CF911F910F91FF90EF90DF90CF9073
:10118000BF90AF909F908F907F906F905F904F90A7
:1011900008950E94F70DCF93DF9385ED8093BC00F7
:1011A0008091500190915101A0915201B091530151
:1011B0000796A11DB11D23E0B695A7959795879534
:1011C0002A95D1F72091BC0024FF37C040915001EF
:1011D000509151016091520170915301452B462B62
:1011E000472B81F30097A105B10541F02AE22A952A
:1011F000F1F700C00197A109B109E4CF80914F0137
:1012000091E090934E018823D1F0C091B800D09125
:10121000BA008091BC008A7B8093BC0060E082E1D0
:101220000E945D0160E083E10E945D010E94F8057B
:10123000D093BA00C093B80002C010929801DF9119
:10124000CF9108951F920F920FB60F9211242F93F2
:101250003F934F935F936F937F938F939F93AF933E
:10126000BF93EF93FF938091D8019091D901A09102
:10127000DA01B091DB01892B8A2B8B2B51F19091F4
:10128000D301E091D401F091D50180818927808339
:101290008091D8019091D901A091DA01B091DB0140
:1012A000181619061A061B06C4F48091D8019091ED
:1012B000D901A091DA01B091DB010197A109B1092F
:1012C0008093D8019093D901A093DA01B093DB0108
:1012D00004C0809100010E94AA01FF91EF91BF918B
:1012E000AF919F918F917F916F915F914F913F91BE
:1012F0002F910F900FBE0F901F9018951F920F9275
:101300000FB60F9211242F933F938F939F93AF9318
:10131000BF938091BF019091C001A091C101B09194
:10132000C2013091BE0123E0230F2D3720F4019636
:10133000A11DB11D05C026E8230F0296A11DB11DF8
:101340002093BE018093BF019093C001A093C1017F
:10135000B093C2018091C3019091C401A091C501D5
:10136000B091C6010196A11DB11D8093C301909358
:10137000C401A093C501B093C601BF91AF919F91E5
:101380008F913F912F910F900FBE0F901F90189546
:101390001F920F920FB60F9211242F933F934F93EA
:1013A0005F936F937F938F939F93AF93BF93EF93CD
:1013B000FF938091B900887F803609F49CC068F55E
:1013C000883209F45BC090F4803109F454C038F4D9
:1013D000882309F4F6C0883009F44DC0F6C088317E
:1013E00009F44CC0803209F45DC0EFC0803409F4C8
:1013F00068C048F4803309F455C0883309F0E5C06B
:1014000080939701D8C0803509F44FC0883509F41E
:101410005DC0883409F0D9C0D6C0883909F4C7C086
:10142000A8F4883709F467C038F4883609F463C033
:10143000803709F460C0C9C0883809F4B8C0803961
:1014400009F45FC0803809F0C0C05BC0803B09F47C
:1014500086C038F4803A09F466C0883A09F47FC03F
:10146000B4C0803C09F4A7C0883C09F4A4C0883B00
:1014700009F48AC0AAC08091BD0110C09091BC013E
:101480008091BB01981770F5E091BC0181E08E0F4F
:101490008093BC01F0E0E556FE4F80818093BB0055
:1014A00085EC86C0809397018EC0E091BC0181E0FD
:1014B0008E0F8093BC018091BB00F0E0E556FE4F9B
:1014C00080839091BC018091BB016EC0E091BC0112
:1014D00081E08E0F8093BC018091BB00F0E0E55667
:1014E000FE4F808380919A0181116DC081E08093CD
:1014F000990184EA61C083E080939801109296017B
:10150000CFCF80919601803208F051C0E0919601D2
:1015100081E08E0F809396018091BB00F0E0EA5845
:10152000FE4F8083BDCF85EC8093BC001092980164
:1015300080919601803230F4E0919601F0E0EA5813
:10154000FE4F10826091960170E0E091C701F0912A
:10155000C80186E791E009951092960136C084E0B3
:10156000809398011092750110927401E091C90165
:10157000F091CA01099580917401811105C081E043
:101580008093740110925401E091750181E08E0FF7
:1015900080937501F0E0EC5AFE4F80818093BB0090
:1015A0009091750180917401981708F479CF85E8BE
:1015B0008093BC000AC085EC8093BC001092980117
:1015C00004C0109297010E94CB08FF91EF91BF9148
:1015D000AF919F918F917F916F915F914F913F91CB
:1015E0002F910F900FBE0F901F9018951092E7014A
:1015F0001092E60188EE93E0A0E0B0E08093E8016D
:101600009093E901A093EA01B093EB018BE191E0A3
:101610009093E5018093E4011092F1011092FA0198
:101620001092010210920202109203021092040220
:1016300082E0809300028093FD011092FE0181E020
:101640008093FF018093F00189E690E09093F70189
:101650008093F6010E94D60C9093FC018093FB01CD
:10166000009761F029E6FC0111922A95E9F783E2DF
:1016700090E09093F5018093F40108C01092F70177
:101680001092F6011092F5011092F4018EE090E0B4
:101690009093F9018093F8018091F101882341F042
:1016A00061E08EE00E94D50160E08EE00E945D0165
:1016B000E3EBF0E0E491F0E0EE0FFF1FE556FF4FA3
:1016C000859194919093060280930502E5E9F0E0FC
:1016D000E491E093070283E290E09093F30180931A
:1016E000F2010895789484B5826084BD84B58160E8
:1016F00084BD85B5826085BD85B5816085BD8091DD
:101700006E00816080936E00109281008091810054
:10171000826080938100809181008160809381004C
:10172000809180008160809380008091B10084600E
:101730008093B1008091B00081608093B00080916F
:101740007A00846080937A0080917A00826080932E
:101750007A0080917A00816080937A0080917A008B
:10176000806880937A001092C10061E08EE00E9450
:10177000D50161E087E00E94D50161E088E00E9428
:10178000D50161E084E00E94D50161E08AE00E9419
:10179000D50161E086E00E94D50161E08FE00E9402
:1017A000D50161E080E10E94D50161E081E10E9404
:1017B000D50161E085E00E94D50161E089E00E94E9
:1017C000D5018091F8019091F90197FD08C061E081
:1017D0000E94D50160E08091F8010E945D0181E0E6
:1017E0008093F1011092CE011092CD011092CC01A4
:1017F0001092CB010E94F8058DEF90E09093CA0102
:101800008093C90189E091E09093C8018093C7015A
:1018100088E88093BA0082E197E09093D0018093AA
:10182000CF018DE496E09093D2018093D1018BE4B7
:1018300090E00E94110260E086E00E945D010E943B
:10184000DE060E94FC0684EF91E00E94980680ED7F
:1018500097E00E946B0262E370E080E090E00E94FB
:10186000960589E00E94AA01C0E0D0E06AE070E03D
:1018700080E090E00E9496052097C1F30E9400004E
:10188000F5CF8091FB019091FC010E946E0D80913B
:10189000F8019091F90197FD03C060E00C94D50127
:1018A0000895052E97FB1EF400940E94680C57FDC6
:1018B00007D00E94700C07FC03D04EF40C94680C07
:1018C00050954095309521953F4F4F4F5F4F08956C
:1018D00090958095709561957F4F8F4F9F4F08959C
:1018E000A1E21A2EAA1BBB1BFD010DC0AA1FBB1F24
:1018F000EE1FFF1FA217B307E407F50720F0A21B96
:10190000B30BE40BF50B661F771F881F991F1A9402
:1019100069F760957095809590959B01AC01BD012C
:10192000CF010895A29FB001B39FC001A39F700D86
:10193000811D1124911DB29F700D811D1124911DD7
:10194000089597FB072E16F4009407D077FD09D071
:101950000E94BC0C07FC05D03EF4909581959F4FEA
:101960000895709561957F4F08950E94920CB7FF7E
:101970000895821B930B0895AA1BBB1B51E107C05E
:10198000AA1FBB1FA617B70710F0A61BB70B881F0F
:10199000991F5A95A9F780959095BC01CD0108959E
:1019A000EE0FFF1F0590F491E02D09940F931F9304
:1019B000CF93DF938230910510F482E090E0E091C4
:1019C0000A02F0910B0220E030E0A0E0B0E0309796
:1019D00019F1408151810281138148175907C8F0DC
:1019E0008417950769F4109731F012960C931297AB
:1019F00013961C9327C000930A0210930B0222C077
:101A00002115310519F04217530718F49A01BD0149
:101A1000EF01DF01F801DBCF21153105F9F0281BBB
:101A2000390B2430310580F48A819B816115710561
:101A300021F0FB019383828304C090930B02809377
:101A40000A02FE01329644C0FE01E20FF31F8193A9
:101A5000919322503109398328833AC0209108029A
:101A600030910902232B41F42091030130910401AC
:101A70003093090220930802209101013091020164
:101A80002115310541F42DB73EB740910501509124
:101A90000601241B350BE0910802F0910902E217C0
:101AA000F307A0F42E1B3F0B2817390778F0AC0181
:101AB0004E5F5F4F2417350748F04E0F5F1F50935E
:101AC0000902409308028193919302C0E0E0F0E0A4
:101AD000CF01DF91CF911F910F910895CF93DF93A5
:101AE000009709F481C0FC01329713821282A09101
:101AF0000A02B0910B02109781F420813181820F8C
:101B0000931F20910802309109022817390751F5D7
:101B1000F0930902E093080267C0ED0120E030E095
:101B2000CE17DF0740F44A815B819E0141155105C4
:101B3000F1F0EA01F5CFD383C28340815181840F54
:101B4000951FC817D90759F488819981840F951F6B
:101B50000296918380838A819B819383828321155E
:101B6000310529F4F0930B02E0930A023DC0E9012C
:101B7000FB83EA8349915991C40FD51FEC17FD07E8
:101B800061F480819181840F951F0296E901998308
:101B90008883828193819B838A83E0E0F0E01296C0
:101BA0008D919C911397009719F0FD01DC01F7CFFF
:101BB0008D919C9111979D012E5F3F4F820F931F36
:101BC00020910802309109022817390769F43097EB
:101BD00029F410920B0210920A0202C013821282A0
:101BE000B0930902A0930802DF91CF91089581E09C
:101BF00090E0F8940C94030EDC0101C06D93415009
:101C00005040E0F7089510E0CEE5D0E004C0FE01BA
:101C10000E94D00C2196CF35D107C9F7F894FFCF99
:101C2000FF00000C02200001000200040008001068
:101C30000020004000800000000000710642068382
:0A1C40000616063A062606170600EF
:107800000C94343C0C94513C0C94513C0C94513CE1
:107810000C94513C0C94513C0C94513C0C94513CB4
:107820000C94513C0C94513C0C94513C0C94513CA4
:107830000C94513C0C94513C0C94513C0C94513C94
:107840000C94513C0C94513C0C94513C0C94513C84
:107850000C94513C0C94513C0C94513C0C94513C74
:107860000C94513C0C94513C11241FBECFEFD8E036
:10787000DEBFCDBF11E0A0E0B1E0E6ECFDE702C065
:1078800005900D92A230B107D9F722E0A2E0B1E055
:1078900001C01D92AD30B207E1F70E940A3D0C9481
:1078A000E13E0C94003C9091C00095FFFCCF80938A
:1078B000C6000895CF93982F8595859585958595D4
:1078C000805D9F709A3014F0C7E501C0C0E3C90F16
:1078D0000E94533C8C2FCF910C94533CCF92DF925B
:1078E000EF92FF92C12CD12C76018091C00087FDD0
:1078F00013C08FEFC81AD80AE80AF80A81E4C8163C
:1079000082E4D8068FE0E806F10478F3E091020102
:10791000F09103010995E9CF8091C600FF90EF90A7
:10792000DF90CF900895CF930E946E3CC82F0E94A5
:10793000533CC13614F089EA03C0C0331CF080ED1B
:107940008C0F01C08C2FCF910895CF930E94933C50
:10795000C82F0E94933C90E1C99F800D1124CF91C4
:107960000895CF93C82FCC2321F00E946E3CC150C4
:10797000FACFCF910895CF93C82F0E946E3C8032EA
:1079800051F484E10E94533C8C2F0E94533C80E1CF
:10799000CF910C94533C809104018F5F809304013C
:1079A000853031F4E0910201F0910301CF91099407
:1079B000CF9108950E946E3C803231F484E10E94A0
:1079C000533C80E10C94533C809104018F5F809381
:1079D0000401853029F4E0910201F091030109943A
:1079E00008958823B1F02D9A2FEF31EE94E02150C5
:1079F00030409040E1F700C000002D982FEF31EEAD
:107A000094E0215030409040E1F700C000008150E8
:107A1000E8CF08950000E0E0F0E0E49180E1809399
:107A2000C4001092C50088E18093C10086E0809375
:107A3000C2005098589A259A81E00E94F13CFF2498
:107A4000F3940E946E3C803309F442C08133E1F428
:107A50000E946E3C803209F0A6C184E10E94533C32
:107A600081E40E94533C86E50E94533C82E50E94DB
:107A7000533C80E20E94533C89E40E94533C83E5DE
:107A80000E94533C80E586C1803439F40E946E3CEC
:107A90008638F0F00E946E3C1BC08134A1F40E9435
:107AA0006E3C803811F482E003C0813821F481E01B
:107AB0000E94BB3CC6CF823811F480E1F9CF8839EF
:107AC000C9F583E0F5CF823431F484E10E94B13C02
:107AD0000E94DA3CB6CF853411F485E0F7CF982FB9
:107AE0009D7F9035A9F3813599F3853549F40E943E
:107AF0006E3C809306010E946E3C80930701E8CFA4
:107B00008635D1F40E946E3C803389F40E946E3C2D
:107B10000E946E3C182F0E946E3C111102C08EE133
:107B2000C7CF113011F485E9C3CF8FE0C1CF83E017
:107B30000E94B13C80E0BCCF843609F0C6C00E94F0
:107B40006E3C809309020E946E3C809308028091F3
:107B50000C028E7F80930C020E946E3C853429F4C7
:107B600080910C02816080930C0208E011E020916A
:107B7000080230910902C80188509140821793078A
:107B800030F40E946E3CF80181938F01F0CF0E9487
:107B90006E3C803209F007C180910C0220910601F1
:107BA0003091070180FF29C0220F331F3093070156
:107BB00020930601E8E0F1E02091080230910902EB
:107BC000CF01885091408217930708F07CC0F99943
:107BD000FECF809106019091070192BD81BD8191F8
:107BE00080BDFA9AF99A8091060190910701019659
:107BF0009093070180930601DFCF80910701880FE2
:107C0000880B8F2180930B02220F331F30930701C3
:107C1000209306018091080280FF09C0809108022C
:107C20009091090201969093090280930802F894BA
:107C3000F999FECF1127E0910601F0910701C8E004
:107C4000D1E08091080290910902103091F40091E6
:107C5000570001700130D9F303E000935700E89515
:107C60000091570001700130D9F301E100935700F2
:107C7000E895099019900091570001700130D9F3EF
:107C800001E000935700E8951395103498F0112700
:107C90000091570001700130D9F305E000935700BF
:107CA000E8950091570001700130D9F301E100938C
:107CB0005700E8953296029709F0C7CF103011F0BF
:107CC0000296E5CF112484E165C0843709F052C0E3
:107CD0000E946E3C809309020E946E3C80930802D1
:107CE0008091060190910701880F991F90930701D9
:107CF000809306010E946E3C90910C02853411F431
:107D0000916001C09E7F90930C020E946E3C803275
:107D100009F097CE84E10E94533C00E010E080918E
:107D200008029091090208171907B0F580910C021A
:107D300080FF0BC0F999FECF809106019091070159
:107D400092BD81BDF89A80B507C081FD07C0E09162
:107D50000601F091070184910E94533C8091060135
:107D600090910701019690930701809306010F5FA0
:107D70001F4FD5CF8537A1F40E946E3C803299F415
:107D800084E10E94533C8EE10E94533C85E90E94AD
:107D9000533C8FE00E94533C80E10E94533C51CE03
:107DA000863709F4C7CE809104018F5F8093040168
:107DB000853009F046CEE0910201F091030109956A
:067DC00040CEF894FFCF55
:027DC60080003B
:040000030000780081
:00000001FF
